{
  "address": "0x5FbDB2315678afecb367f032d93F642f64180aa3",
  "abi": [
    {
      "inputs": [],
      "stateMutability": "nonpayable",
      "type": "constructor"
    },
    {
      "inputs": [
        {
          "internalType": "address",
          "name": "sender",
          "type": "address"
        },
        {
          "internalType": "uint256",
          "name": "tokenId",
          "type": "uint256"
        },
        {
          "internalType": "address",
          "name": "owner",
          "type": "address"
        }
      ],
      "name": "ERC721IncorrectOwner",
      "type": "error"
    },
    {
      "inputs": [
        {
          "internalType": "address",
          "name": "operator",
          "type": "address"
        },
        {
          "internalType": "uint256",
          "name": "tokenId",
          "type": "uint256"
        }
      ],
      "name": "ERC721InsufficientApproval",
      "type": "error"
    },
    {
      "inputs": [
        {
          "internalType": "address",
          "name": "approver",
          "type": "address"
        }
      ],
      "name": "ERC721InvalidApprover",
      "type": "error"
    },
    {
      "inputs": [
        {
          "internalType": "address",
          "name": "operator",
          "type": "address"
        }
      ],
      "name": "ERC721InvalidOperator",
      "type": "error"
    },
    {
      "inputs": [
        {
          "internalType": "address",
          "name": "owner",
          "type": "address"
        }
      ],
      "name": "ERC721InvalidOwner",
      "type": "error"
    },
    {
      "inputs": [
        {
          "internalType": "address",
          "name": "receiver",
          "type": "address"
        }
      ],
      "name": "ERC721InvalidReceiver",
      "type": "error"
    },
    {
      "inputs": [
        {
          "internalType": "address",
          "name": "sender",
          "type": "address"
        }
      ],
      "name": "ERC721InvalidSender",
      "type": "error"
    },
    {
      "inputs": [
        {
          "internalType": "uint256",
          "name": "tokenId",
          "type": "uint256"
        }
      ],
      "name": "ERC721NonexistentToken",
      "type": "error"
    },
    {
      "anonymous": false,
      "inputs": [
        {
          "indexed": true,
          "internalType": "address",
          "name": "owner",
          "type": "address"
        },
        {
          "indexed": true,
          "internalType": "address",
          "name": "approved",
          "type": "address"
        },
        {
          "indexed": true,
          "internalType": "uint256",
          "name": "tokenId",
          "type": "uint256"
        }
      ],
      "name": "Approval",
      "type": "event"
    },
    {
      "anonymous": false,
      "inputs": [
        {
          "indexed": true,
          "internalType": "address",
          "name": "owner",
          "type": "address"
        },
        {
          "indexed": true,
          "internalType": "address",
          "name": "operator",
          "type": "address"
        },
        {
          "indexed": false,
          "internalType": "bool",
          "name": "approved",
          "type": "bool"
        }
      ],
      "name": "ApprovalForAll",
      "type": "event"
    },
    {
      "anonymous": false,
      "inputs": [
        {
          "indexed": false,
          "internalType": "uint256",
          "name": "_fromTokenId",
          "type": "uint256"
        },
        {
          "indexed": false,
          "internalType": "uint256",
          "name": "_toTokenId",
          "type": "uint256"
        }
      ],
      "name": "BatchMetadataUpdate",
      "type": "event"
    },
    {
      "anonymous": false,
      "inputs": [
        {
          "indexed": false,
          "internalType": "uint256",
          "name": "_tokenId",
          "type": "uint256"
        }
      ],
      "name": "MetadataUpdate",
      "type": "event"
    },
    {
      "anonymous": false,
      "inputs": [
        {
          "indexed": true,
          "internalType": "address",
          "name": "from",
          "type": "address"
        },
        {
          "indexed": true,
          "internalType": "address",
          "name": "to",
          "type": "address"
        },
        {
          "indexed": true,
          "internalType": "uint256",
          "name": "tokenId",
          "type": "uint256"
        }
      ],
      "name": "Transfer",
      "type": "event"
    },
    {
      "inputs": [
        {
          "internalType": "address",
          "name": "to",
          "type": "address"
        },
        {
          "internalType": "uint256",
          "name": "tokenId",
          "type": "uint256"
        }
      ],
      "name": "approve",
      "outputs": [],
      "stateMutability": "nonpayable",
      "type": "function"
    },
    {
      "inputs": [
        {
          "internalType": "address",
          "name": "owner",
          "type": "address"
        }
      ],
      "name": "balanceOf",
      "outputs": [
        {
          "internalType": "uint256",
          "name": "",
          "type": "uint256"
        }
      ],
      "stateMutability": "view",
      "type": "function"
    },
    {
      "inputs": [
        {
          "internalType": "uint256",
          "name": "tokenId",
          "type": "uint256"
        }
      ],
      "name": "getApproved",
      "outputs": [
        {
          "internalType": "address",
          "name": "",
          "type": "address"
        }
      ],
      "stateMutability": "view",
      "type": "function"
    },
    {
      "inputs": [
        {
          "internalType": "address",
          "name": "owner",
          "type": "address"
        },
        {
          "internalType": "address",
          "name": "operator",
          "type": "address"
        }
      ],
      "name": "isApprovedForAll",
      "outputs": [
        {
          "internalType": "bool",
          "name": "",
          "type": "bool"
        }
      ],
      "stateMutability": "view",
      "type": "function"
    },
    {
      "inputs": [
        {
          "internalType": "string",
          "name": "uri",
          "type": "string"
        }
      ],
      "name": "mint",
      "outputs": [
        {
          "internalType": "uint256",
          "name": "",
          "type": "uint256"
        }
      ],
      "stateMutability": "nonpayable",
      "type": "function"
    },
    {
      "inputs": [],
      "name": "name",
      "outputs": [
        {
          "internalType": "string",
          "name": "",
          "type": "string"
        }
      ],
      "stateMutability": "view",
      "type": "function"
    },
    {
      "inputs": [],
      "name": "owner",
      "outputs": [
        {
          "internalType": "address",
          "name": "",
          "type": "address"
        }
      ],
      "stateMutability": "view",
      "type": "function"
    },
    {
      "inputs": [
        {
          "internalType": "uint256",
          "name": "tokenId",
          "type": "uint256"
        }
      ],
      "name": "ownerOf",
      "outputs": [
        {
          "internalType": "address",
          "name": "",
          "type": "address"
        }
      ],
      "stateMutability": "view",
      "type": "function"
    },
    {
      "inputs": [
        {
          "internalType": "address",
          "name": "from",
          "type": "address"
        },
        {
          "internalType": "address",
          "name": "to",
          "type": "address"
        },
        {
          "internalType": "uint256",
          "name": "tokenId",
          "type": "uint256"
        }
      ],
      "name": "safeTransferFrom",
      "outputs": [],
      "stateMutability": "nonpayable",
      "type": "function"
    },
    {
      "inputs": [
        {
          "internalType": "address",
          "name": "from",
          "type": "address"
        },
        {
          "internalType": "address",
          "name": "to",
          "type": "address"
        },
        {
          "internalType": "uint256",
          "name": "tokenId",
          "type": "uint256"
        },
        {
          "internalType": "bytes",
          "name": "data",
          "type": "bytes"
        }
      ],
      "name": "safeTransferFrom",
      "outputs": [],
      "stateMutability": "nonpayable",
      "type": "function"
    },
    {
      "inputs": [
        {
          "internalType": "address",
          "name": "operator",
          "type": "address"
        },
        {
          "internalType": "bool",
          "name": "approved",
          "type": "bool"
        }
      ],
      "name": "setApprovalForAll",
      "outputs": [],
      "stateMutability": "nonpayable",
      "type": "function"
    },
    {
      "inputs": [
        {
          "internalType": "bytes4",
          "name": "interfaceId",
          "type": "bytes4"
        }
      ],
      "name": "supportsInterface",
      "outputs": [
        {
          "internalType": "bool",
          "name": "",
          "type": "bool"
        }
      ],
      "stateMutability": "view",
      "type": "function"
    },
    {
      "inputs": [],
      "name": "symbol",
      "outputs": [
        {
          "internalType": "string",
          "name": "",
          "type": "string"
        }
      ],
      "stateMutability": "view",
      "type": "function"
    },
    {
      "inputs": [],
      "name": "tokenID",
      "outputs": [
        {
          "internalType": "uint256",
          "name": "",
          "type": "uint256"
        }
      ],
      "stateMutability": "view",
      "type": "function"
    },
    {
      "inputs": [
        {
          "internalType": "uint256",
          "name": "tokenId",
          "type": "uint256"
        }
      ],
      "name": "tokenURI",
      "outputs": [
        {
          "internalType": "string",
          "name": "",
          "type": "string"
        }
      ],
      "stateMutability": "view",
      "type": "function"
    },
    {
      "inputs": [
        {
          "internalType": "address",
          "name": "from",
          "type": "address"
        },
        {
          "internalType": "address",
          "name": "to",
          "type": "address"
        },
        {
          "internalType": "uint256",
          "name": "tokenId",
          "type": "uint256"
        }
      ],
      "name": "transferFrom",
      "outputs": [],
      "stateMutability": "nonpayable",
      "type": "function"
    }
  ],
  "transactionHash": "0x3fd3ff9f479c678e18e25acace8f16bcdad7a826bf3c77d3f32568e6828ad178",
  "args": [],
  "numDeployments": 1,
  "solcInputHash": "5fd56759076798fd780388b7e2e134ec",
  "bytecode": "0x608060405260006007553480156200001657600080fd5b506040518060400160405280600581526020017f4d794e46540000000000000000000000000000000000000000000000000000008152506040518060400160405280600381526020017f4d4654000000000000000000000000000000000000000000000000000000000081525081600090816200009491906200036a565b508060019081620000a691906200036a565b50505033600860006101000a81548173ffffffffffffffffffffffffffffffffffffffff021916908373ffffffffffffffffffffffffffffffffffffffff16021790555062000451565b600081519050919050565b7f4e487b7100000000000000000000000000000000000000000000000000000000600052604160045260246000fd5b7f4e487b7100000000000000000000000000000000000000000000000000000000600052602260045260246000fd5b600060028204905060018216806200017257607f821691505b6020821081036200018857620001876200012a565b5b50919050565b60008190508160005260206000209050919050565b60006020601f8301049050919050565b600082821b905092915050565b600060088302620001f27fffffffffffffffffffffffffffffffffffffffffffffffffffffffffffffffff82620001b3565b620001fe8683620001b3565b95508019841693508086168417925050509392505050565b6000819050919050565b6000819050919050565b60006200024b620002456200023f8462000216565b62000220565b62000216565b9050919050565b6000819050919050565b62000267836200022a565b6200027f620002768262000252565b848454620001c0565b825550505050565b600090565b6200029662000287565b620002a38184846200025c565b505050565b5b81811015620002cb57620002bf6000826200028c565b600181019050620002a9565b5050565b601f8211156200031a57620002e4816200018e565b620002ef84620001a3565b81016020851015620002ff578190505b620003176200030e85620001a3565b830182620002a8565b50505b505050565b600082821c905092915050565b60006200033f600019846008026200031f565b1980831691505092915050565b60006200035a83836200032c565b9150826002028217905092915050565b6200037582620000f0565b67ffffffffffffffff811115620003915762000390620000fb565b5b6200039d825462000159565b620003aa828285620002cf565b600060209050601f831160018114620003e25760008415620003cd578287015190505b620003d985826200034c565b86555062000449565b601f198416620003f2866200018e565b60005b828110156200041c57848901518255600182019150602085019450602081019050620003f5565b868310156200043c578489015162000438601f8916826200032c565b8355505b6001600288020188555050505b505050505050565b61258580620004616000396000f3fe608060405234801561001057600080fd5b50600436106101005760003560e01c80638da5cb5b11610097578063b88d4fde11610066578063b88d4fde146102ad578063c87b56dd146102c9578063d85d3d27146102f9578063e985e9c51461032957610100565b80638da5cb5b1461023757806395d89b4114610255578063a22cb46514610273578063a5c42ef11461028f57610100565b806323b872dd116100d357806323b872dd1461019f57806342842e0e146101bb5780636352211e146101d757806370a082311461020757610100565b806301ffc9a71461010557806306fdde0314610135578063081812fc14610153578063095ea7b314610183575b600080fd5b61011f600480360381019061011a919061195e565b610359565b60405161012c91906119a6565b60405180910390f35b61013d6103ba565b60405161014a9190611a51565b60405180910390f35b61016d60048036038101906101689190611aa9565b61044c565b60405161017a9190611b17565b60405180910390f35b61019d60048036038101906101989190611b5e565b610468565b005b6101b960048036038101906101b49190611b9e565b61047e565b005b6101d560048036038101906101d09190611b9e565b610580565b005b6101f160048036038101906101ec9190611aa9565b6105a0565b6040516101fe9190611b17565b60405180910390f35b610221600480360381019061021c9190611bf1565b6105b2565b60405161022e9190611c2d565b60405180910390f35b61023f61066c565b60405161024c9190611b17565b60405180910390f35b61025d610692565b60405161026a9190611a51565b60405180910390f35b61028d60048036038101906102889190611c74565b610724565b005b61029761073a565b6040516102a49190611c2d565b60405180910390f35b6102c760048036038101906102c29190611de9565b610740565b005b6102e360048036038101906102de9190611aa9565b61075d565b6040516102f09190611a51565b60405180910390f35b610313600480360381019061030e9190611f0d565b610870565b6040516103209190611c2d565b60405180910390f35b610343600480360381019061033e9190611f56565b61093c565b60405161035091906119a6565b60405180910390f35b6000634906490660e01b7bffffffffffffffffffffffffffffffffffffffffffffffffffffffff1916827bffffffffffffffffffffffffffffffffffffffffffffffffffffffff191614806103b357506103b2826109d0565b5b9050919050565b6060600080546103c990611fc5565b80601f01602080910402602001604051908101604052809291908181526020018280546103f590611fc5565b80156104425780601f1061041757610100808354040283529160200191610442565b820191906000526020600020905b81548152906001019060200180831161042557829003601f168201915b5050505050905090565b600061045782610ab2565b5061046182610b3a565b9050919050565b61047a8282610475610b77565b610b7f565b5050565b600073ffffffffffffffffffffffffffffffffffffffff168273ffffffffffffffffffffffffffffffffffffffff16036104f05760006040517f64a0ae920000000000000000000000000000000000000000000000000000000081526004016104e79190611b17565b60405180910390fd5b600061050483836104ff610b77565b610b91565b90508373ffffffffffffffffffffffffffffffffffffffff168173ffffffffffffffffffffffffffffffffffffffff161461057a578382826040517f64283d7b00000000000000000000000000000000000000000000000000000000815260040161057193929190611ff6565b60405180910390fd5b50505050565b61059b83838360405180602001604052806000815250610740565b505050565b60006105ab82610ab2565b9050919050565b60008073ffffffffffffffffffffffffffffffffffffffff168273ffffffffffffffffffffffffffffffffffffffff16036106255760006040517f89c62b6400000000000000000000000000000000000000000000000000000000815260040161061c9190611b17565b60405180910390fd5b600360008373ffffffffffffffffffffffffffffffffffffffff1673ffffffffffffffffffffffffffffffffffffffff168152602001908152602001600020549050919050565b600860009054906101000a900473ffffffffffffffffffffffffffffffffffffffff1681565b6060600180546106a190611fc5565b80601f01602080910402602001604051908101604052809291908181526020018280546106cd90611fc5565b801561071a5780601f106106ef5761010080835404028352916020019161071a565b820191906000526020600020905b8154815290600101906020018083116106fd57829003601f168201915b5050505050905090565b61073661072f610b77565b8383610dab565b5050565b60075481565b61074b84848461047e565b61075784848484610f1a565b50505050565b606061076882610ab2565b50600060066000848152602001908152602001600020805461078990611fc5565b80601f01602080910402602001604051908101604052809291908181526020018280546107b590611fc5565b80156108025780601f106107d757610100808354040283529160200191610802565b820191906000526020600020905b8154815290600101906020018083116107e557829003601f168201915b5050505050905060006108136110d1565b9050600081510361082857819250505061086b565b60008251111561085d578082604051602001610845929190612069565b6040516020818303038152906040529250505061086b565b610866846110e8565b925050505b919050565b6000600860009054906101000a900473ffffffffffffffffffffffffffffffffffffffff1673ffffffffffffffffffffffffffffffffffffffff163373ffffffffffffffffffffffffffffffffffffffff1614610902576040517f08c379a00000000000000000000000000000000000000000000000000000000081526004016108f9906120ff565b60405180910390fd5b600760008154809291906109159061214e565b919050555061092633600754611151565b6109326007548361116f565b6007549050919050565b6000600560008473ffffffffffffffffffffffffffffffffffffffff1673ffffffffffffffffffffffffffffffffffffffff16815260200190815260200160002060008373ffffffffffffffffffffffffffffffffffffffff1673ffffffffffffffffffffffffffffffffffffffff16815260200190815260200160002060009054906101000a900460ff16905092915050565b60007f80ac58cd000000000000000000000000000000000000000000000000000000007bffffffffffffffffffffffffffffffffffffffffffffffffffffffff1916827bffffffffffffffffffffffffffffffffffffffffffffffffffffffff19161480610a9b57507f5b5e139f000000000000000000000000000000000000000000000000000000007bffffffffffffffffffffffffffffffffffffffffffffffffffffffff1916827bffffffffffffffffffffffffffffffffffffffffffffffffffffffff1916145b80610aab5750610aaa826111cb565b5b9050919050565b600080610abe83611235565b9050600073ffffffffffffffffffffffffffffffffffffffff168173ffffffffffffffffffffffffffffffffffffffff1603610b3157826040517f7e273289000000000000000000000000000000000000000000000000000000008152600401610b289190611c2d565b60405180910390fd5b80915050919050565b60006004600083815260200190815260200160002060009054906101000a900473ffffffffffffffffffffffffffffffffffffffff169050919050565b600033905090565b610b8c8383836001611272565b505050565b600080610b9d84611235565b9050600073ffffffffffffffffffffffffffffffffffffffff168373ffffffffffffffffffffffffffffffffffffffff1614610bdf57610bde818486611437565b5b600073ffffffffffffffffffffffffffffffffffffffff168173ffffffffffffffffffffffffffffffffffffffff1614610c7057610c21600085600080611272565b6001600360008373ffffffffffffffffffffffffffffffffffffffff1673ffffffffffffffffffffffffffffffffffffffff168152602001908152602001600020600082825403925050819055505b600073ffffffffffffffffffffffffffffffffffffffff168573ffffffffffffffffffffffffffffffffffffffff1614610cf3576001600360008773ffffffffffffffffffffffffffffffffffffffff1673ffffffffffffffffffffffffffffffffffffffff168152602001908152602001600020600082825401925050819055505b846002600086815260200190815260200160002060006101000a81548173ffffffffffffffffffffffffffffffffffffffff021916908373ffffffffffffffffffffffffffffffffffffffff160217905550838573ffffffffffffffffffffffffffffffffffffffff168273ffffffffffffffffffffffffffffffffffffffff167fddf252ad1be2c89b69c2b068fc378daa952ba7f163c4a11628f55a4df523b3ef60405160405180910390a4809150509392505050565b600073ffffffffffffffffffffffffffffffffffffffff168273ffffffffffffffffffffffffffffffffffffffff1603610e1c57816040517f5b08ba18000000000000000000000000000000000000000000000000000000008152600401610e139190611b17565b60405180910390fd5b80600560008573ffffffffffffffffffffffffffffffffffffffff1673ffffffffffffffffffffffffffffffffffffffff16815260200190815260200160002060008473ffffffffffffffffffffffffffffffffffffffff1673ffffffffffffffffffffffffffffffffffffffff16815260200190815260200160002060006101000a81548160ff0219169083151502179055508173ffffffffffffffffffffffffffffffffffffffff168373ffffffffffffffffffffffffffffffffffffffff167f17307eab39ab6107e8899845ad3d59bd9653f200f220920489ca2b5937696c3183604051610f0d91906119a6565b60405180910390a3505050565b60008373ffffffffffffffffffffffffffffffffffffffff163b11156110cb578273ffffffffffffffffffffffffffffffffffffffff1663150b7a02610f5e610b77565b8685856040518563ffffffff1660e01b8152600401610f8094939291906121eb565b6020604051808303816000875af1925050508015610fbc57506040513d601f19601f82011682018060405250810190610fb9919061224c565b60015b611040573d8060008114610fec576040519150601f19603f3d011682016040523d82523d6000602084013e610ff1565b606091505b50600081510361103857836040517f64a0ae9200000000000000000000000000000000000000000000000000000000815260040161102f9190611b17565b60405180910390fd5b805181602001fd5b63150b7a0260e01b7bffffffffffffffffffffffffffffffffffffffffffffffffffffffff1916817bffffffffffffffffffffffffffffffffffffffffffffffffffffffff1916146110c957836040517f64a0ae920000000000000000000000000000000000000000000000000000000081526004016110c09190611b17565b60405180910390fd5b505b50505050565b606060405180602001604052806000815250905090565b60606110f382610ab2565b5060006110fe6110d1565b9050600081511161111e5760405180602001604052806000815250611149565b80611128846114fb565b604051602001611139929190612069565b6040516020818303038152906040525b915050919050565b61116b8282604051806020016040528060008152506115c9565b5050565b8060066000848152602001908152602001600020908161118f9190612425565b507ff8e1a15aba9398e019f0b49df1a4fde98ee17ae345cb5f6b5e2c27f5033e8ce7826040516111bf9190611c2d565b60405180910390a15050565b60007f01ffc9a7000000000000000000000000000000000000000000000000000000007bffffffffffffffffffffffffffffffffffffffffffffffffffffffff1916827bffffffffffffffffffffffffffffffffffffffffffffffffffffffff1916149050919050565b60006002600083815260200190815260200160002060009054906101000a900473ffffffffffffffffffffffffffffffffffffffff169050919050565b80806112ab5750600073ffffffffffffffffffffffffffffffffffffffff168273ffffffffffffffffffffffffffffffffffffffff1614155b156113df5760006112bb84610ab2565b9050600073ffffffffffffffffffffffffffffffffffffffff168373ffffffffffffffffffffffffffffffffffffffff161415801561132657508273ffffffffffffffffffffffffffffffffffffffff168173ffffffffffffffffffffffffffffffffffffffff1614155b80156113395750611337818461093c565b155b1561137b57826040517fa9fbf51f0000000000000000000000000000000000000000000000000000000081526004016113729190611b17565b60405180910390fd5b81156113dd57838573ffffffffffffffffffffffffffffffffffffffff168273ffffffffffffffffffffffffffffffffffffffff167f8c5be1e5ebec7d5bd14f71427d1e84f3dd0314c0f7b2291e5b200ac8c7c3b92560405160405180910390a45b505b836004600085815260200190815260200160002060006101000a81548173ffffffffffffffffffffffffffffffffffffffff021916908373ffffffffffffffffffffffffffffffffffffffff16021790555050505050565b6114428383836115e5565b6114f657600073ffffffffffffffffffffffffffffffffffffffff168373ffffffffffffffffffffffffffffffffffffffff16036114b757806040517f7e2732890000000000000000000000000000000000000000000000000000000081526004016114ae9190611c2d565b60405180910390fd5b81816040517f177e802f0000000000000000000000000000000000000000000000000000000081526004016114ed9291906124f7565b60405180910390fd5b505050565b60606000600161150a846116a6565b01905060008167ffffffffffffffff81111561152957611528611cbe565b5b6040519080825280601f01601f19166020018201604052801561155b5781602001600182028036833780820191505090505b509050600082602001820190505b6001156115be578080600190039150507f3031323334353637383961626364656600000000000000000000000000000000600a86061a8153600a85816115b2576115b1612520565b5b04945060008503611569575b819350505050919050565b6115d383836117f9565b6115e06000848484610f1a565b505050565b60008073ffffffffffffffffffffffffffffffffffffffff168373ffffffffffffffffffffffffffffffffffffffff161415801561169d57508273ffffffffffffffffffffffffffffffffffffffff168473ffffffffffffffffffffffffffffffffffffffff16148061165e575061165d848461093c565b5b8061169c57508273ffffffffffffffffffffffffffffffffffffffff1661168483610b3a565b73ffffffffffffffffffffffffffffffffffffffff16145b5b90509392505050565b600080600090507a184f03e93ff9f4daa797ed6e38ed64bf6a1f0100000000000000008310611704577a184f03e93ff9f4daa797ed6e38ed64bf6a1f01000000000000000083816116fa576116f9612520565b5b0492506040810190505b6d04ee2d6d415b85acef81000000008310611741576d04ee2d6d415b85acef8100000000838161173757611736612520565b5b0492506020810190505b662386f26fc10000831061177057662386f26fc10000838161176657611765612520565b5b0492506010810190505b6305f5e1008310611799576305f5e100838161178f5761178e612520565b5b0492506008810190505b61271083106117be5761271083816117b4576117b3612520565b5b0492506004810190505b606483106117e157606483816117d7576117d6612520565b5b0492506002810190505b600a83106117f0576001810190505b80915050919050565b600073ffffffffffffffffffffffffffffffffffffffff168273ffffffffffffffffffffffffffffffffffffffff160361186b5760006040517f64a0ae920000000000000000000000000000000000000000000000000000000081526004016118629190611b17565b60405180910390fd5b600061187983836000610b91565b9050600073ffffffffffffffffffffffffffffffffffffffff168173ffffffffffffffffffffffffffffffffffffffff16146118ed5760006040517f73c6ac6e0000000000000000000000000000000000000000000000000000000081526004016118e49190611b17565b60405180910390fd5b505050565b6000604051905090565b600080fd5b600080fd5b60007fffffffff0000000000000000000000000000000000000000000000000000000082169050919050565b61193b81611906565b811461194657600080fd5b50565b60008135905061195881611932565b92915050565b600060208284031215611974576119736118fc565b5b600061198284828501611949565b91505092915050565b60008115159050919050565b6119a08161198b565b82525050565b60006020820190506119bb6000830184611997565b92915050565b600081519050919050565b600082825260208201905092915050565b60005b838110156119fb5780820151818401526020810190506119e0565b60008484015250505050565b6000601f19601f8301169050919050565b6000611a23826119c1565b611a2d81856119cc565b9350611a3d8185602086016119dd565b611a4681611a07565b840191505092915050565b60006020820190508181036000830152611a6b8184611a18565b905092915050565b6000819050919050565b611a8681611a73565b8114611a9157600080fd5b50565b600081359050611aa381611a7d565b92915050565b600060208284031215611abf57611abe6118fc565b5b6000611acd84828501611a94565b91505092915050565b600073ffffffffffffffffffffffffffffffffffffffff82169050919050565b6000611b0182611ad6565b9050919050565b611b1181611af6565b82525050565b6000602082019050611b2c6000830184611b08565b92915050565b611b3b81611af6565b8114611b4657600080fd5b50565b600081359050611b5881611b32565b92915050565b60008060408385031215611b7557611b746118fc565b5b6000611b8385828601611b49565b9250506020611b9485828601611a94565b9150509250929050565b600080600060608486031215611bb757611bb66118fc565b5b6000611bc586828701611b49565b9350506020611bd686828701611b49565b9250506040611be786828701611a94565b9150509250925092565b600060208284031215611c0757611c066118fc565b5b6000611c1584828501611b49565b91505092915050565b611c2781611a73565b82525050565b6000602082019050611c426000830184611c1e565b92915050565b611c518161198b565b8114611c5c57600080fd5b50565b600081359050611c6e81611c48565b92915050565b60008060408385031215611c8b57611c8a6118fc565b5b6000611c9985828601611b49565b9250506020611caa85828601611c5f565b9150509250929050565b600080fd5b600080fd5b7f4e487b7100000000000000000000000000000000000000000000000000000000600052604160045260246000fd5b611cf682611a07565b810181811067ffffffffffffffff82111715611d1557611d14611cbe565b5b80604052505050565b6000611d286118f2565b9050611d348282611ced565b919050565b600067ffffffffffffffff821115611d5457611d53611cbe565b5b611d5d82611a07565b9050602081019050919050565b82818337600083830152505050565b6000611d8c611d8784611d39565b611d1e565b905082815260208101848484011115611da857611da7611cb9565b5b611db3848285611d6a565b509392505050565b600082601f830112611dd057611dcf611cb4565b5b8135611de0848260208601611d79565b91505092915050565b60008060008060808587031215611e0357611e026118fc565b5b6000611e1187828801611b49565b9450506020611e2287828801611b49565b9350506040611e3387828801611a94565b925050606085013567ffffffffffffffff811115611e5457611e53611901565b5b611e6087828801611dbb565b91505092959194509250565b600067ffffffffffffffff821115611e8757611e86611cbe565b5b611e9082611a07565b9050602081019050919050565b6000611eb0611eab84611e6c565b611d1e565b905082815260208101848484011115611ecc57611ecb611cb9565b5b611ed7848285611d6a565b509392505050565b600082601f830112611ef457611ef3611cb4565b5b8135611f04848260208601611e9d565b91505092915050565b600060208284031215611f2357611f226118fc565b5b600082013567ffffffffffffffff811115611f4157611f40611901565b5b611f4d84828501611edf565b91505092915050565b60008060408385031215611f6d57611f6c6118fc565b5b6000611f7b85828601611b49565b9250506020611f8c85828601611b49565b9150509250929050565b7f4e487b7100000000000000000000000000000000000000000000000000000000600052602260045260246000fd5b60006002820490506001821680611fdd57607f821691505b602082108103611ff057611fef611f96565b5b50919050565b600060608201905061200b6000830186611b08565b6120186020830185611c1e565b6120256040830184611b08565b949350505050565b600081905092915050565b6000612043826119c1565b61204d818561202d565b935061205d8185602086016119dd565b80840191505092915050565b60006120758285612038565b91506120818284612038565b91508190509392505050565b7f596f752063616e206e6f74206d696e742061204e46542073696e636520796f7560008201527f20617265206e6f7420746865206f776e65720000000000000000000000000000602082015250565b60006120e96032836119cc565b91506120f48261208d565b604082019050919050565b60006020820190508181036000830152612118816120dc565b9050919050565b7f4e487b7100000000000000000000000000000000000000000000000000000000600052601160045260246000fd5b600061215982611a73565b91507fffffffffffffffffffffffffffffffffffffffffffffffffffffffffffffffff820361218b5761218a61211f565b5b600182019050919050565b600081519050919050565b600082825260208201905092915050565b60006121bd82612196565b6121c781856121a1565b93506121d78185602086016119dd565b6121e081611a07565b840191505092915050565b60006080820190506122006000830187611b08565b61220d6020830186611b08565b61221a6040830185611c1e565b818103606083015261222c81846121b2565b905095945050505050565b60008151905061224681611932565b92915050565b600060208284031215612262576122616118fc565b5b600061227084828501612237565b91505092915050565b60008190508160005260206000209050919050565b60006020601f8301049050919050565b600082821b905092915050565b6000600883026122db7fffffffffffffffffffffffffffffffffffffffffffffffffffffffffffffffff8261229e565b6122e5868361229e565b95508019841693508086168417925050509392505050565b6000819050919050565b600061232261231d61231884611a73565b6122fd565b611a73565b9050919050565b6000819050919050565b61233c83612307565b61235061234882612329565b8484546122ab565b825550505050565b600090565b612365612358565b612370818484612333565b505050565b5b818110156123945761238960008261235d565b600181019050612376565b5050565b601f8211156123d9576123aa81612279565b6123b38461228e565b810160208510156123c2578190505b6123d66123ce8561228e565b830182612375565b50505b505050565b600082821c905092915050565b60006123fc600019846008026123de565b1980831691505092915050565b600061241583836123eb565b9150826002028217905092915050565b61242e826119c1565b67ffffffffffffffff81111561244757612446611cbe565b5b6124518254611fc5565b61245c828285612398565b600060209050601f83116001811461248f576000841561247d578287015190505b6124878582612409565b8655506124ef565b601f19841661249d86612279565b60005b828110156124c5578489015182556001820191506020850194506020810190506124a0565b868310156124e257848901516124de601f8916826123eb565b8355505b6001600288020188555050505b505050505050565b600060408201905061250c6000830185611b08565b6125196020830184611c1e565b9392505050565b7f4e487b7100000000000000000000000000000000000000000000000000000000600052601260045260246000fdfea2646970667358221220765754a11c9f6d1888696f56806ddcae27a4307b2b95ae7dd5af827a6807ad0364736f6c63430008170033",
  "devdoc": {
    "errors": {
      "ERC721IncorrectOwner(address,uint256,address)": [
        {
          "details": "Indicates an error related to the ownership over a particular token. Used in transfers.",
          "params": {
            "owner": "Address of the current owner of a token.",
            "sender": "Address whose tokens are being transferred.",
            "tokenId": "Identifier number of a token."
          }
        }
      ],
      "ERC721InsufficientApproval(address,uint256)": [
        {
          "details": "Indicates a failure with the `operator`s approval. Used in transfers.",
          "params": {
            "operator": "Address that may be allowed to operate on tokens without being their owner.",
            "tokenId": "Identifier number of a token."
          }
        }
      ],
      "ERC721InvalidApprover(address)": [
        {
          "details": "Indicates a failure with the `approver` of a token to be approved. Used in approvals.",
          "params": {
            "approver": "Address initiating an approval operation."
          }
        }
      ],
      "ERC721InvalidOperator(address)": [
        {
          "details": "Indicates a failure with the `operator` to be approved. Used in approvals.",
          "params": {
            "operator": "Address that may be allowed to operate on tokens without being their owner."
          }
        }
      ],
      "ERC721InvalidOwner(address)": [
        {
          "details": "Indicates that an address can't be an owner. For example, `address(0)` is a forbidden owner in EIP-20. Used in balance queries.",
          "params": {
            "owner": "Address of the current owner of a token."
          }
        }
      ],
      "ERC721InvalidReceiver(address)": [
        {
          "details": "Indicates a failure with the token `receiver`. Used in transfers.",
          "params": {
            "receiver": "Address to which tokens are being transferred."
          }
        }
      ],
      "ERC721InvalidSender(address)": [
        {
          "details": "Indicates a failure with the token `sender`. Used in transfers.",
          "params": {
            "sender": "Address whose tokens are being transferred."
          }
        }
      ],
      "ERC721NonexistentToken(uint256)": [
        {
          "details": "Indicates a `tokenId` whose `owner` is the zero address.",
          "params": {
            "tokenId": "Identifier number of a token."
          }
        }
      ]
    },
    "events": {
      "Approval(address,address,uint256)": {
        "details": "Emitted when `owner` enables `approved` to manage the `tokenId` token."
      },
      "ApprovalForAll(address,address,bool)": {
        "details": "Emitted when `owner` enables or disables (`approved`) `operator` to manage all of its assets."
      },
      "BatchMetadataUpdate(uint256,uint256)": {
        "details": "This event emits when the metadata of a range of tokens is changed. So that the third-party platforms such as NFT market could timely update the images and related attributes of the NFTs."
      },
      "MetadataUpdate(uint256)": {
        "details": "This event emits when the metadata of a token is changed. So that the third-party platforms such as NFT market could timely update the images and related attributes of the NFT."
      },
      "Transfer(address,address,uint256)": {
        "details": "Emitted when `tokenId` token is transferred from `from` to `to`."
      }
    },
    "kind": "dev",
    "methods": {
      "approve(address,uint256)": {
        "details": "See {IERC721-approve}."
      },
      "balanceOf(address)": {
        "details": "See {IERC721-balanceOf}."
      },
      "getApproved(uint256)": {
        "details": "See {IERC721-getApproved}."
      },
      "isApprovedForAll(address,address)": {
        "details": "See {IERC721-isApprovedForAll}."
      },
      "name()": {
        "details": "See {IERC721Metadata-name}."
      },
      "ownerOf(uint256)": {
        "details": "See {IERC721-ownerOf}."
      },
      "safeTransferFrom(address,address,uint256)": {
        "details": "See {IERC721-safeTransferFrom}."
      },
      "safeTransferFrom(address,address,uint256,bytes)": {
        "details": "See {IERC721-safeTransferFrom}."
      },
      "setApprovalForAll(address,bool)": {
        "details": "See {IERC721-setApprovalForAll}."
      },
      "supportsInterface(bytes4)": {
        "details": "See {IERC165-supportsInterface}"
      },
      "symbol()": {
        "details": "See {IERC721Metadata-symbol}."
      },
      "tokenURI(uint256)": {
        "details": "See {IERC721Metadata-tokenURI}."
      },
      "transferFrom(address,address,uint256)": {
        "details": "See {IERC721-transferFrom}."
      }
    },
    "version": 1
  },
  "userdoc": {
    "kind": "user",
    "methods": {},
    "version": 1
  },
  "storageLayout": {
    "storage": [
      {
        "astId": 201,
        "contract": "contracts/MyNFT.sol:MyNFT",
        "label": "_name",
        "offset": 0,
        "slot": "0",
        "type": "t_string_storage"
      },
      {
        "astId": 203,
        "contract": "contracts/MyNFT.sol:MyNFT",
        "label": "_symbol",
        "offset": 0,
        "slot": "1",
        "type": "t_string_storage"
      },
      {
        "astId": 207,
        "contract": "contracts/MyNFT.sol:MyNFT",
        "label": "_owners",
        "offset": 0,
        "slot": "2",
        "type": "t_mapping(t_uint256,t_address)"
      },
      {
        "astId": 211,
        "contract": "contracts/MyNFT.sol:MyNFT",
        "label": "_balances",
        "offset": 0,
        "slot": "3",
        "type": "t_mapping(t_address,t_uint256)"
      },
      {
        "astId": 215,
        "contract": "contracts/MyNFT.sol:MyNFT",
        "label": "_tokenApprovals",
        "offset": 0,
        "slot": "4",
        "type": "t_mapping(t_uint256,t_address)"
      },
      {
        "astId": 221,
        "contract": "contracts/MyNFT.sol:MyNFT",
        "label": "_operatorApprovals",
        "offset": 0,
        "slot": "5",
        "type": "t_mapping(t_address,t_mapping(t_address,t_bool))"
      },
      {
        "astId": 1340,
        "contract": "contracts/MyNFT.sol:MyNFT",
        "label": "_tokenURIs",
        "offset": 0,
        "slot": "6",
        "type": "t_mapping(t_uint256,t_string_storage)"
      },
      {
        "astId": 2948,
        "contract": "contracts/MyNFT.sol:MyNFT",
        "label": "tokenID",
        "offset": 0,
        "slot": "7",
        "type": "t_uint256"
      },
      {
        "astId": 2950,
        "contract": "contracts/MyNFT.sol:MyNFT",
        "label": "owner",
        "offset": 0,
        "slot": "8",
        "type": "t_address"
      }
    ],
    "types": {
      "t_address": {
        "encoding": "inplace",
        "label": "address",
        "numberOfBytes": "20"
      },
      "t_bool": {
        "encoding": "inplace",
        "label": "bool",
        "numberOfBytes": "1"
      },
      "t_mapping(t_address,t_bool)": {
        "encoding": "mapping",
        "key": "t_address",
        "label": "mapping(address => bool)",
        "numberOfBytes": "32",
        "value": "t_bool"
      },
      "t_mapping(t_address,t_mapping(t_address,t_bool))": {
        "encoding": "mapping",
        "key": "t_address",
        "label": "mapping(address => mapping(address => bool))",
        "numberOfBytes": "32",
        "value": "t_mapping(t_address,t_bool)"
      },
      "t_mapping(t_address,t_uint256)": {
        "encoding": "mapping",
        "key": "t_address",
        "label": "mapping(address => uint256)",
        "numberOfBytes": "32",
        "value": "t_uint256"
      },
      "t_mapping(t_uint256,t_address)": {
        "encoding": "mapping",
        "key": "t_uint256",
        "label": "mapping(uint256 => address)",
        "numberOfBytes": "32",
        "value": "t_address"
      },
      "t_mapping(t_uint256,t_string_storage)": {
        "encoding": "mapping",
        "key": "t_uint256",
        "label": "mapping(uint256 => string)",
        "numberOfBytes": "32",
        "value": "t_string_storage"
      },
      "t_string_storage": {
        "encoding": "bytes",
        "label": "string",
        "numberOfBytes": "32"
      },
      "t_uint256": {
        "encoding": "inplace",
        "label": "uint256",
        "numberOfBytes": "32"
      }
    }
  }
}